{
  "_format": "hh-sol-artifact-1",
  "contractName": "Arbitrage",
  "sourceName": "contracts/Arbitrage.sol",
  "abi": [
    {
      "constant": false,
      "inputs": [
        {
          "internalType": "uint256",
          "name": "amountIn",
          "type": "uint256"
        },
        {
          "internalType": "address",
          "name": "to",
          "type": "address"
        },
        {
          "internalType": "uint256",
          "name": "deadline",
          "type": "uint256"
        },
        {
          "internalType": "address[]",
          "name": "inPath",
          "type": "address[]"
        },
        {
          "internalType": "address[]",
          "name": "outPath",
          "type": "address[]"
        },
        {
          "internalType": "address",
          "name": "tokenAddress",
          "type": "address"
        },
        {
          "internalType": "address",
          "name": "inRouter",
          "type": "address"
        },
        {
          "internalType": "address",
          "name": "outRouter",
          "type": "address"
        },
        {
          "internalType": "uint256",
          "name": "amountOutMin",
          "type": "uint256"
        }
      ],
      "name": "arbitrage",
      "outputs": [],
      "payable": false,
      "stateMutability": "nonpayable",
      "type": "function"
    }
  ],
  "bytecode": "0x608060405234801561001057600080fd5b5061074a806100206000396000f3fe608060405234801561001057600080fd5b506004361061002b5760003560e01c80631cb7154c14610030575b600080fd5b610219600480360361012081101561004757600080fd5b8101908080359060200190929190803573ffffffffffffffffffffffffffffffffffffffff169060200190929190803590602001909291908035906020019064010000000081111561009857600080fd5b8201836020820111156100aa57600080fd5b803590602001918460208302840111640100000000831117156100cc57600080fd5b919080806020026020016040519081016040528093929190818152602001838360200280828437600081840152601f19601f8201169050808301925050505050505091929192908035906020019064010000000081111561012c57600080fd5b82018360208201111561013e57600080fd5b8035906020019184602083028401116401000000008311171561016057600080fd5b919080806020026020016040519081016040528093929190818152602001838360200280828437600081840152601f19601f820116905080830192505050505050509192919290803573ffffffffffffffffffffffffffffffffffffffff169060200190929190803573ffffffffffffffffffffffffffffffffffffffff169060200190929190803573ffffffffffffffffffffffffffffffffffffffff1690602001909291908035906020019092919050505061021b565b005b60008473ffffffffffffffffffffffffffffffffffffffff166370a08231336040518263ffffffff1660e01b8152600401808273ffffffffffffffffffffffffffffffffffffffff1673ffffffffffffffffffffffffffffffffffffffff16815260200191505060206040518083038186803b15801561029a57600080fd5b505afa1580156102ae573d6000803e3d6000fd5b505050506040513d60208110156102c457600080fd5b810190808051906020019092919050505090508373ffffffffffffffffffffffffffffffffffffffff166338ed17398b60018a8d8d6040518663ffffffff1660e01b815260040180868152602001858152602001806020018473ffffffffffffffffffffffffffffffffffffffff1673ffffffffffffffffffffffffffffffffffffffff168152602001838152602001828103825285818151815260200191508051906020019060200280838360005b8381101561038f578082015181840152602081019050610374565b505050509050019650505050505050600060405180830381600087803b1580156103b857600080fd5b505af11580156103cc573d6000803e3d6000fd5b505050506040513d6000823e3d601f19601f8201168201806040525060208110156103f657600080fd5b810190808051604051939291908464010000000082111561041657600080fd5b8382019150602082018581111561042c57600080fd5b825186602082028301116401000000008211171561044957600080fd5b8083526020830192505050908051906020019060200280838360005b83811015610480578082015181840152602081019050610465565b505050509050016040525050505060008573ffffffffffffffffffffffffffffffffffffffff166370a08231336040518263ffffffff1660e01b8152600401808273ffffffffffffffffffffffffffffffffffffffff1673ffffffffffffffffffffffffffffffffffffffff16815260200191505060206040518083038186803b15801561050d57600080fd5b505afa158015610521573d6000803e3d6000fd5b505050506040513d602081101561053757600080fd5b81019080805190602001909291905050509050600082820390508473ffffffffffffffffffffffffffffffffffffffff166338ed173982868b8f8f6040518663ffffffff1660e01b815260040180868152602001858152602001806020018473ffffffffffffffffffffffffffffffffffffffff1673ffffffffffffffffffffffffffffffffffffffff168152602001838152602001828103825285818151815260200191508051906020019060200280838360005b838110156106085780820151818401526020810190506105ed565b505050509050019650505050505050600060405180830381600087803b15801561063157600080fd5b505af1158015610645573d6000803e3d6000fd5b505050506040513d6000823e3d601f19601f82011682018060405250602081101561066f57600080fd5b810190808051604051939291908464010000000082111561068f57600080fd5b838201915060208201858111156106a557600080fd5b82518660208202830111640100000000821117156106c257600080fd5b8083526020830192505050908051906020019060200280838360005b838110156106f95780820151818401526020810190506106de565b505050509050016040525050505050505050505050505050505056fea265627a7a723158205863839d6d357339d4c9d2d580fc13d7d0c89e0439a6e26f3e4edf80160810b764736f6c63430005100032",
  "linkReferences": {},
  "deployedLinkReferences": {}
}