{
  "_format": "hh-sol-artifact-1",
  "contractName": "Arbitrage",
  "sourceName": "contracts/Arbitrage.sol",
  "abi": [
    {
      "anonymous": false,
      "inputs": [
        {
          "indexed": true,
          "internalType": "address",
          "name": "previousOwner",
          "type": "address"
        },
        {
          "indexed": true,
          "internalType": "address",
          "name": "newOwner",
          "type": "address"
        }
      ],
      "name": "OwnershipTransferred",
      "type": "event"
    },
    {
      "inputs": [
        {
          "internalType": "address",
          "name": "token",
          "type": "address"
        },
        {
          "internalType": "address",
          "name": "spender",
          "type": "address"
        },
        {
          "internalType": "uint256",
          "name": "amount",
          "type": "uint256"
        }
      ],
      "name": "approve",
      "outputs": [],
      "stateMutability": "nonpayable",
      "type": "function"
    },
    {
      "inputs": [
        {
          "internalType": "address",
          "name": "_router1",
          "type": "address"
        },
        {
          "internalType": "address",
          "name": "_router2",
          "type": "address"
        },
        {
          "internalType": "address",
          "name": "_token1",
          "type": "address"
        },
        {
          "internalType": "address",
          "name": "_token2",
          "type": "address"
        },
        {
          "internalType": "uint256",
          "name": "_amount",
          "type": "uint256"
        }
      ],
      "name": "dualDexTrade",
      "outputs": [],
      "stateMutability": "nonpayable",
      "type": "function"
    },
    {
      "inputs": [
        {
          "internalType": "address",
          "name": "_router1",
          "type": "address"
        },
        {
          "internalType": "address",
          "name": "_router2",
          "type": "address"
        },
        {
          "internalType": "address",
          "name": "_token1",
          "type": "address"
        },
        {
          "internalType": "address",
          "name": "_token2",
          "type": "address"
        },
        {
          "internalType": "uint256",
          "name": "_amount",
          "type": "uint256"
        }
      ],
      "name": "estimateDualDexTrade",
      "outputs": [
        {
          "internalType": "uint256",
          "name": "",
          "type": "uint256"
        }
      ],
      "stateMutability": "view",
      "type": "function"
    },
    {
      "inputs": [
        {
          "internalType": "address",
          "name": "_router1",
          "type": "address"
        },
        {
          "internalType": "address",
          "name": "_router2",
          "type": "address"
        },
        {
          "internalType": "address",
          "name": "_router3",
          "type": "address"
        },
        {
          "internalType": "address",
          "name": "_token1",
          "type": "address"
        },
        {
          "internalType": "address",
          "name": "_token2",
          "type": "address"
        },
        {
          "internalType": "address",
          "name": "_token3",
          "type": "address"
        },
        {
          "internalType": "uint256",
          "name": "_amount",
          "type": "uint256"
        }
      ],
      "name": "estimateTriDexTrade",
      "outputs": [
        {
          "internalType": "uint256",
          "name": "",
          "type": "uint256"
        }
      ],
      "stateMutability": "view",
      "type": "function"
    },
    {
      "inputs": [
        {
          "internalType": "address",
          "name": "router",
          "type": "address"
        },
        {
          "internalType": "address",
          "name": "_tokenIn",
          "type": "address"
        },
        {
          "internalType": "address",
          "name": "_tokenOut",
          "type": "address"
        },
        {
          "internalType": "uint256",
          "name": "_amount",
          "type": "uint256"
        }
      ],
      "name": "getAmountOutMin",
      "outputs": [
        {
          "internalType": "uint256",
          "name": "",
          "type": "uint256"
        }
      ],
      "stateMutability": "view",
      "type": "function"
    },
    {
      "inputs": [
        {
          "internalType": "address",
          "name": "_tokenContractAddress",
          "type": "address"
        }
      ],
      "name": "getBalance",
      "outputs": [
        {
          "internalType": "uint256",
          "name": "",
          "type": "uint256"
        }
      ],
      "stateMutability": "view",
      "type": "function"
    },
    {
      "inputs": [],
      "name": "owner",
      "outputs": [
        {
          "internalType": "address",
          "name": "",
          "type": "address"
        }
      ],
      "stateMutability": "view",
      "type": "function"
    },
    {
      "inputs": [],
      "name": "recoverEth",
      "outputs": [],
      "stateMutability": "nonpayable",
      "type": "function"
    },
    {
      "inputs": [
        {
          "internalType": "address",
          "name": "tokenAddress",
          "type": "address"
        }
      ],
      "name": "recoverTokens",
      "outputs": [],
      "stateMutability": "nonpayable",
      "type": "function"
    },
    {
      "inputs": [],
      "name": "renounceOwnership",
      "outputs": [],
      "stateMutability": "nonpayable",
      "type": "function"
    },
    {
      "inputs": [
        {
          "internalType": "address",
          "name": "newOwner",
          "type": "address"
        }
      ],
      "name": "transferOwnership",
      "outputs": [],
      "stateMutability": "nonpayable",
      "type": "function"
    }
  ],
  "bytecode": "0x608060405234801561001057600080fd5b5061002d61002261003260201b60201c565b61003a60201b60201c565b6100fe565b600033905090565b60008060009054906101000a900473ffffffffffffffffffffffffffffffffffffffff169050816000806101000a81548173ffffffffffffffffffffffffffffffffffffffff021916908373ffffffffffffffffffffffffffffffffffffffff1602179055508173ffffffffffffffffffffffffffffffffffffffff168173ffffffffffffffffffffffffffffffffffffffff167f8be0079c531659141344cd1fd0a4f28419497f9722a3daafe3b4186f6b6457e060405160405180910390a35050565b6118e08061010d6000396000f3fe608060405234801561001057600080fd5b50600436106100a95760003560e01c8063715018a611610071578063715018a6146101765780638da5cb5b14610180578063bcdb446b1461019e578063e1f21c67146101a8578063f2fde38b146101c4578063f8b2cb4f146101e0576100a9565b8063068e7ca1146100ae57806316114acd146100de5780631aa51318146100fa57806326a215ec1461011657806343cf6f2414610146575b600080fd5b6100c860048036038101906100c391906111f1565b610210565b6040516100d59190611529565b60405180910390f35b6100f860048036038101906100f3919061112a565b61023f565b005b610114600480360381019061010f91906111f1565b6103da565b005b610130600480360381019061012b9190611153565b6106be565b60405161013d9190611529565b60405180910390f35b610160600480360381019061015b9190611268565b610700565b60405161016d9190611529565b60405180910390f35b61017e61094e565b005b6101886109d6565b60405161019591906114a5565b60405180910390f35b6101a66109ff565b005b6101c260048036038101906101bd91906112cb565b610ac4565b005b6101de60048036038101906101d9919061112a565b610bd3565b005b6101fa60048036038101906101f5919061112a565b610ccb565b6040516102079190611529565b60405180910390f35b60008061021f87868686610700565b9050600061022f87868885610700565b9050809250505095945050505050565b610247610d62565b73ffffffffffffffffffffffffffffffffffffffff166102656109d6565b73ffffffffffffffffffffffffffffffffffffffff16146102bb576040517f08c379a00000000000000000000000000000000000000000000000000000000081526004016102b290611509565b60405180910390fd5b60008190508073ffffffffffffffffffffffffffffffffffffffff1663a9059cbb338373ffffffffffffffffffffffffffffffffffffffff166370a08231306040518263ffffffff1660e01b815260040161031691906114a5565b60206040518083038186803b15801561032e57600080fd5b505afa158015610342573d6000803e3d6000fd5b505050506040513d601f19601f820116820180604052508101906103669190611384565b6040518363ffffffff1660e01b81526004016103839291906114c0565b602060405180830381600087803b15801561039d57600080fd5b505af11580156103b1573d6000803e3d6000fd5b505050506040513d601f19601f820116820180604052508101906103d5919061135b565b505050565b6103e2610d62565b73ffffffffffffffffffffffffffffffffffffffff166104006109d6565b73ffffffffffffffffffffffffffffffffffffffff1614610456576040517f08c379a000000000000000000000000000000000000000000000000000000000815260040161044d90611509565b60405180910390fd5b60008373ffffffffffffffffffffffffffffffffffffffff166370a08231306040518263ffffffff1660e01b815260040161049191906114a5565b60206040518083038186803b1580156104a957600080fd5b505afa1580156104bd573d6000803e3d6000fd5b505050506040513d601f19601f820116820180604052508101906104e19190611384565b905060008373ffffffffffffffffffffffffffffffffffffffff166370a08231306040518263ffffffff1660e01b815260040161051e91906114a5565b60206040518083038186803b15801561053657600080fd5b505afa15801561054a573d6000803e3d6000fd5b505050506040513d601f19601f8201168201806040525081019061056e9190611384565b905061057c87868686610d6a565b60008473ffffffffffffffffffffffffffffffffffffffff166370a08231306040518263ffffffff1660e01b81526004016105b791906114a5565b60206040518083038186803b1580156105cf57600080fd5b505afa1580156105e3573d6000803e3d6000fd5b505050506040513d601f19601f820116820180604052508101906106079190611384565b90506000828261061791906116bf565b905061062588878984610d6a565b60008773ffffffffffffffffffffffffffffffffffffffff166370a08231306040518263ffffffff1660e01b815260040161066091906114a5565b60206040518083038186803b15801561067857600080fd5b505afa15801561068c573d6000803e3d6000fd5b505050506040513d601f19601f820116820180604052508101906106b09190611384565b905050505050505050505050565b6000806106cd89878786610700565b905060006106dd89878785610700565b905060006106ed89878a85610700565b9050809350505050979650505050505050565b60006060600267ffffffffffffffff811115610745577f4e487b7100000000000000000000000000000000000000000000000000000000600052604160045260246000fd5b6040519080825280602002602001820160405280156107735781602001602082028036833780820191505090505b50905084816000815181106107b1577f4e487b7100000000000000000000000000000000000000000000000000000000600052603260045260246000fd5b602002602001019073ffffffffffffffffffffffffffffffffffffffff16908173ffffffffffffffffffffffffffffffffffffffff16815250508381600181518110610826577f4e487b7100000000000000000000000000000000000000000000000000000000600052603260045260246000fd5b602002602001019073ffffffffffffffffffffffffffffffffffffffff16908173ffffffffffffffffffffffffffffffffffffffff168152505060008673ffffffffffffffffffffffffffffffffffffffff1663d06ca61f85846040518363ffffffff1660e01b815260040161089d929190611544565b60006040518083038186803b1580156108b557600080fd5b505afa1580156108c9573d6000803e3d6000fd5b505050506040513d6000823e3d601f19601f820116820180604052508101906108f2919061131a565b9050806001835161090391906116bf565b8151811061093a577f4e487b7100000000000000000000000000000000000000000000000000000000600052603260045260246000fd5b602002602001015192505050949350505050565b610956610d62565b73ffffffffffffffffffffffffffffffffffffffff166109746109d6565b73ffffffffffffffffffffffffffffffffffffffff16146109ca576040517f08c379a00000000000000000000000000000000000000000000000000000000081526004016109c190611509565b60405180910390fd5b6109d46000610f7c565b565b60008060009054906101000a900473ffffffffffffffffffffffffffffffffffffffff16905090565b610a07610d62565b73ffffffffffffffffffffffffffffffffffffffff16610a256109d6565b73ffffffffffffffffffffffffffffffffffffffff1614610a7b576040517f08c379a0000000000000000000000000000000000000000000000000000000008152600401610a7290611509565b60405180910390fd5b3373ffffffffffffffffffffffffffffffffffffffff166108fc479081150290604051600060405180830381858888f19350505050158015610ac1573d6000803e3d6000fd5b50565b610acc610d62565b73ffffffffffffffffffffffffffffffffffffffff16610aea6109d6565b73ffffffffffffffffffffffffffffffffffffffff1614610b40576040517f08c379a0000000000000000000000000000000000000000000000000000000008152600401610b3790611509565b60405180910390fd5b8273ffffffffffffffffffffffffffffffffffffffff1663095ea7b383836040518363ffffffff1660e01b8152600401610b7b9291906114c0565b602060405180830381600087803b158015610b9557600080fd5b505af1158015610ba9573d6000803e3d6000fd5b505050506040513d601f19601f82011682018060405250810190610bcd919061135b565b50505050565b610bdb610d62565b73ffffffffffffffffffffffffffffffffffffffff16610bf96109d6565b73ffffffffffffffffffffffffffffffffffffffff1614610c4f576040517f08c379a0000000000000000000000000000000000000000000000000000000008152600401610c4690611509565b60405180910390fd5b600073ffffffffffffffffffffffffffffffffffffffff168173ffffffffffffffffffffffffffffffffffffffff161415610cbf576040517f08c379a0000000000000000000000000000000000000000000000000000000008152600401610cb6906114e9565b60405180910390fd5b610cc881610f7c565b50565b6000808273ffffffffffffffffffffffffffffffffffffffff166370a08231306040518263ffffffff1660e01b8152600401610d0791906114a5565b60206040518083038186803b158015610d1f57600080fd5b505afa158015610d33573d6000803e3d6000fd5b505050506040513d601f19601f82011682018060405250810190610d579190611384565b905080915050919050565b600033905090565b6060600267ffffffffffffffff811115610dad577f4e487b7100000000000000000000000000000000000000000000000000000000600052604160045260246000fd5b604051908082528060200260200182016040528015610ddb5781602001602082028036833780820191505090505b5090508381600081518110610e19577f4e487b7100000000000000000000000000000000000000000000000000000000600052603260045260246000fd5b602002602001019073ffffffffffffffffffffffffffffffffffffffff16908173ffffffffffffffffffffffffffffffffffffffff16815250508281600181518110610e8e577f4e487b7100000000000000000000000000000000000000000000000000000000600052603260045260246000fd5b602002602001019073ffffffffffffffffffffffffffffffffffffffff16908173ffffffffffffffffffffffffffffffffffffffff1681525050600061012c42610ed89190611669565b90508573ffffffffffffffffffffffffffffffffffffffff166338ed17398460018530866040518663ffffffff1660e01b8152600401610f1c959493929190611574565b600060405180830381600087803b158015610f3657600080fd5b505af1158015610f4a573d6000803e3d6000fd5b505050506040513d6000823e3d601f19601f82011682018060405250810190610f73919061131a565b50505050505050565b60008060009054906101000a900473ffffffffffffffffffffffffffffffffffffffff169050816000806101000a81548173ffffffffffffffffffffffffffffffffffffffff021916908373ffffffffffffffffffffffffffffffffffffffff1602179055508173ffffffffffffffffffffffffffffffffffffffff168173ffffffffffffffffffffffffffffffffffffffff167f8be0079c531659141344cd1fd0a4f28419497f9722a3daafe3b4186f6b6457e060405160405180910390a35050565b600061105361104e846115f3565b6115ce565b9050808382526020820190508285602086028201111561107257600080fd5b60005b858110156110a257816110888882611115565b845260208401935060208301925050600181019050611075565b5050509392505050565b6000813590506110bb81611865565b92915050565b600082601f8301126110d257600080fd5b81516110e2848260208601611040565b91505092915050565b6000815190506110fa8161187c565b92915050565b60008135905061110f81611893565b92915050565b60008151905061112481611893565b92915050565b60006020828403121561113c57600080fd5b600061114a848285016110ac565b91505092915050565b600080600080600080600060e0888a03121561116e57600080fd5b600061117c8a828b016110ac565b975050602061118d8a828b016110ac565b965050604061119e8a828b016110ac565b95505060606111af8a828b016110ac565b94505060806111c08a828b016110ac565b93505060a06111d18a828b016110ac565b92505060c06111e28a828b01611100565b91505092959891949750929550565b600080600080600060a0868803121561120957600080fd5b6000611217888289016110ac565b9550506020611228888289016110ac565b9450506040611239888289016110ac565b935050606061124a888289016110ac565b925050608061125b88828901611100565b9150509295509295909350565b6000806000806080858703121561127e57600080fd5b600061128c878288016110ac565b945050602061129d878288016110ac565b93505060406112ae878288016110ac565b92505060606112bf87828801611100565b91505092959194509250565b6000806000606084860312156112e057600080fd5b60006112ee868287016110ac565b93505060206112ff868287016110ac565b925050604061131086828701611100565b9150509250925092565b60006020828403121561132c57600080fd5b600082015167ffffffffffffffff81111561134657600080fd5b611352848285016110c1565b91505092915050565b60006020828403121561136d57600080fd5b600061137b848285016110eb565b91505092915050565b60006020828403121561139657600080fd5b60006113a484828501611115565b91505092915050565b60006113b983836113c5565b60208301905092915050565b6113ce816116f3565b82525050565b6113dd816116f3565b82525050565b60006113ee8261162f565b6113f88185611647565b93506114038361161f565b8060005b8381101561143457815161141b88826113ad565b97506114268361163a565b925050600181019050611407565b5085935050505092915050565b61144a8161173b565b82525050565b600061145d602683611658565b9150611468826117ed565b604082019050919050565b6000611480602083611658565b915061148b8261183c565b602082019050919050565b61149f81611731565b82525050565b60006020820190506114ba60008301846113d4565b92915050565b60006040820190506114d560008301856113d4565b6114e26020830184611496565b9392505050565b6000602082019050818103600083015261150281611450565b9050919050565b6000602082019050818103600083015261152281611473565b9050919050565b600060208201905061153e6000830184611496565b92915050565b60006040820190506115596000830185611496565b818103602083015261156b81846113e3565b90509392505050565b600060a0820190506115896000830188611496565b6115966020830187611441565b81810360408301526115a881866113e3565b90506115b760608301856113d4565b6115c46080830184611496565b9695505050505050565b60006115d86115e9565b90506115e4828261174d565b919050565b6000604051905090565b600067ffffffffffffffff82111561160e5761160d6117ad565b5b602082029050602081019050919050565b6000819050602082019050919050565b600081519050919050565b6000602082019050919050565b600082825260208201905092915050565b600082825260208201905092915050565b600061167482611731565b915061167f83611731565b9250827fffffffffffffffffffffffffffffffffffffffffffffffffffffffffffffffff038211156116b4576116b361177e565b5b828201905092915050565b60006116ca82611731565b91506116d583611731565b9250828210156116e8576116e761177e565b5b828203905092915050565b60006116fe82611711565b9050919050565b60008115159050919050565b600073ffffffffffffffffffffffffffffffffffffffff82169050919050565b6000819050919050565b600061174682611731565b9050919050565b611756826117dc565b810181811067ffffffffffffffff82111715611775576117746117ad565b5b80604052505050565b7f4e487b7100000000000000000000000000000000000000000000000000000000600052601160045260246000fd5b7f4e487b7100000000000000000000000000000000000000000000000000000000600052604160045260246000fd5b6000601f19601f8301169050919050565b7f4f776e61626c653a206e6577206f776e657220697320746865207a65726f206160008201527f6464726573730000000000000000000000000000000000000000000000000000602082015250565b7f4f776e61626c653a2063616c6c6572206973206e6f7420746865206f776e6572600082015250565b61186e816116f3565b811461187957600080fd5b50565b61188581611705565b811461189057600080fd5b50565b61189c81611731565b81146118a757600080fd5b5056fea26469706673582212206dee0dfbe7176060109165c8f324eaf038c848548fc92620dc6d7135dd62607d64736f6c63430008040033",
  "linkReferences": {},
  "deployedLinkReferences": {}
}