{
  "_format": "hh-sol-artifact-1",
  "contractName": "Arbitrage",
  "sourceName": "contracts/Arbitrage.sol",
  "abi": [
    {
      "constant": false,
      "inputs": [
        {
          "internalType": "uint256",
          "name": "amountIn",
          "type": "uint256"
        },
        {
          "internalType": "address",
          "name": "to",
          "type": "address"
        },
        {
          "internalType": "uint256",
          "name": "deadline",
          "type": "uint256"
        },
        {
          "internalType": "address[]",
          "name": "inPath",
          "type": "address[]"
        },
        {
          "internalType": "address[]",
          "name": "outPath",
          "type": "address[]"
        },
        {
          "internalType": "address",
          "name": "tokenAddress",
          "type": "address"
        },
        {
          "internalType": "address",
          "name": "inRouter",
          "type": "address"
        },
        {
          "internalType": "address",
          "name": "outRouter",
          "type": "address"
        },
        {
          "internalType": "uint256",
          "name": "amountOutMin",
          "type": "uint256"
        }
      ],
      "name": "arbitrage",
      "outputs": [],
      "payable": false,
      "stateMutability": "nonpayable",
      "type": "function"
    },
    {
      "constant": true,
      "inputs": [
        {
          "internalType": "uint256",
          "name": "amountIn",
          "type": "uint256"
        },
        {
          "internalType": "address[]",
          "name": "path",
          "type": "address[]"
        },
        {
          "internalType": "address",
          "name": "router",
          "type": "address"
        }
      ],
      "name": "getAmount",
      "outputs": [
        {
          "internalType": "uint256[]",
          "name": "",
          "type": "uint256[]"
        }
      ],
      "payable": false,
      "stateMutability": "view",
      "type": "function"
    },
    {
      "constant": false,
      "inputs": [
        {
          "internalType": "uint256",
          "name": "amountIn",
          "type": "uint256"
        },
        {
          "internalType": "address",
          "name": "to",
          "type": "address"
        },
        {
          "internalType": "uint256",
          "name": "deadline",
          "type": "uint256"
        },
        {
          "internalType": "address[]",
          "name": "path",
          "type": "address[]"
        },
        {
          "internalType": "address",
          "name": "router",
          "type": "address"
        },
        {
          "internalType": "uint256",
          "name": "amountOutMin",
          "type": "uint256"
        }
      ],
      "name": "swap",
      "outputs": [],
      "payable": false,
      "stateMutability": "nonpayable",
      "type": "function"
    }
  ],
  "bytecode": "0x608060405234801561001057600080fd5b50610cea806100206000396000f3fe608060405234801561001057600080fd5b50600436106100415760003560e01c80631cb7154c146100465780633a24e7a414610231578063cf19b32914610368575b600080fd5b61022f600480360361012081101561005d57600080fd5b8101908080359060200190929190803573ffffffffffffffffffffffffffffffffffffffff16906020019092919080359060200190929190803590602001906401000000008111156100ae57600080fd5b8201836020820111156100c057600080fd5b803590602001918460208302840111640100000000831117156100e257600080fd5b919080806020026020016040519081016040528093929190818152602001838360200280828437600081840152601f19601f8201169050808301925050505050505091929192908035906020019064010000000081111561014257600080fd5b82018360208201111561015457600080fd5b8035906020019184602083028401116401000000008311171561017657600080fd5b919080806020026020016040519081016040528093929190818152602001838360200280828437600081840152601f19601f820116905080830192505050505050509192919290803573ffffffffffffffffffffffffffffffffffffffff169060200190929190803573ffffffffffffffffffffffffffffffffffffffff169060200190929190803573ffffffffffffffffffffffffffffffffffffffff1690602001909291908035906020019092919050505061047e565b005b6103116004803603606081101561024757600080fd5b81019080803590602001909291908035906020019064010000000081111561026e57600080fd5b82018360208201111561028057600080fd5b803590602001918460208302840111640100000000831117156102a257600080fd5b919080806020026020016040519081016040528093929190818152602001838360200280828437600081840152601f19601f820116905080830192505050505050509192919290803573ffffffffffffffffffffffffffffffffffffffff169060200190929190505050610978565b6040518080602001828103825283818151815260200191508051906020019060200280838360005b83811015610354578082015181840152602081019050610339565b505050509050019250505060405180910390f35b61047c600480360360c081101561037e57600080fd5b8101908080359060200190929190803573ffffffffffffffffffffffffffffffffffffffff16906020019092919080359060200190929190803590602001906401000000008111156103cf57600080fd5b8201836020820111156103e157600080fd5b8035906020019184602083028401116401000000008311171561040357600080fd5b919080806020026020016040519081016040528093929190818152602001838360200280828437600081840152601f19601f820116905080830192505050505050509192919290803573ffffffffffffffffffffffffffffffffffffffff16906020019092919080359060200190929190505050610af7565b005b60008473ffffffffffffffffffffffffffffffffffffffff166370a08231336040518263ffffffff1660e01b8152600401808273ffffffffffffffffffffffffffffffffffffffff1673ffffffffffffffffffffffffffffffffffffffff16815260200191505060206040518083038186803b1580156104fd57600080fd5b505afa158015610511573d6000803e3d6000fd5b505050506040513d602081101561052757600080fd5b810190808051906020019092919050505090508373ffffffffffffffffffffffffffffffffffffffff166338ed17398b60018a8d8d6040518663ffffffff1660e01b815260040180868152602001858152602001806020018473ffffffffffffffffffffffffffffffffffffffff1673ffffffffffffffffffffffffffffffffffffffff168152602001838152602001828103825285818151815260200191508051906020019060200280838360005b838110156105f25780820151818401526020810190506105d7565b505050509050019650505050505050600060405180830381600087803b15801561061b57600080fd5b505af115801561062f573d6000803e3d6000fd5b505050506040513d6000823e3d601f19601f82011682018060405250602081101561065957600080fd5b810190808051604051939291908464010000000082111561067957600080fd5b8382019150602082018581111561068f57600080fd5b82518660208202830111640100000000821117156106ac57600080fd5b8083526020830192505050908051906020019060200280838360005b838110156106e35780820151818401526020810190506106c8565b505050509050016040525050505060008573ffffffffffffffffffffffffffffffffffffffff166370a08231336040518263ffffffff1660e01b8152600401808273ffffffffffffffffffffffffffffffffffffffff1673ffffffffffffffffffffffffffffffffffffffff16815260200191505060206040518083038186803b15801561077057600080fd5b505afa158015610784573d6000803e3d6000fd5b505050506040513d602081101561079a57600080fd5b81019080805190602001909291905050509050600082820390508473ffffffffffffffffffffffffffffffffffffffff166338ed173982868b8f8f6040518663ffffffff1660e01b815260040180868152602001858152602001806020018473ffffffffffffffffffffffffffffffffffffffff1673ffffffffffffffffffffffffffffffffffffffff168152602001838152602001828103825285818151815260200191508051906020019060200280838360005b8381101561086b578082015181840152602081019050610850565b505050509050019650505050505050600060405180830381600087803b15801561089457600080fd5b505af11580156108a8573d6000803e3d6000fd5b505050506040513d6000823e3d601f19601f8201168201806040525060208110156108d257600080fd5b81019080805160405193929190846401000000008211156108f257600080fd5b8382019150602082018581111561090857600080fd5b825186602082028301116401000000008211171561092557600080fd5b8083526020830192505050908051906020019060200280838360005b8381101561095c578082015181840152602081019050610941565b5050505090500160405250505050505050505050505050505050565b6060808273ffffffffffffffffffffffffffffffffffffffff1663d06ca61f86866040518363ffffffff1660e01b81526004018083815260200180602001828103825283818151815260200191508051906020019060200280838360005b838110156109f15780820151818401526020810190506109d6565b50505050905001935050505060006040518083038186803b158015610a1557600080fd5b505afa158015610a29573d6000803e3d6000fd5b505050506040513d6000823e3d601f19601f820116820180604052506020811015610a5357600080fd5b8101908080516040519392919084640100000000821115610a7357600080fd5b83820191506020820185811115610a8957600080fd5b8251866020820283011164010000000082111715610aa657600080fd5b8083526020830192505050908051906020019060200280838360005b83811015610add578082015181840152602081019050610ac2565b505050509050016040525050509050809150509392505050565b8173ffffffffffffffffffffffffffffffffffffffff166338ed173987838689896040518663ffffffff1660e01b815260040180868152602001858152602001806020018473ffffffffffffffffffffffffffffffffffffffff1673ffffffffffffffffffffffffffffffffffffffff168152602001838152602001828103825285818151815260200191508051906020019060200280838360005b83811015610bae578082015181840152602081019050610b93565b505050509050019650505050505050600060405180830381600087803b158015610bd757600080fd5b505af1158015610beb573d6000803e3d6000fd5b505050506040513d6000823e3d601f19601f820116820180604052506020811015610c1557600080fd5b8101908080516040519392919084640100000000821115610c3557600080fd5b83820191506020820185811115610c4b57600080fd5b8251866020820283011164010000000082111715610c6857600080fd5b8083526020830192505050908051906020019060200280838360005b83811015610c9f578082015181840152602081019050610c84565b505050509050016040525050505050505050505056fea265627a7a72315820785609cee132ae5fbb11d8cc9c08dcc09458a07a7e3ad4c55d7c67fe329d16d864736f6c63430005100032",
  "linkReferences": {},
  "deployedLinkReferences": {}
}